{
  "contractName": "Election",
  "abi": [
    {
      "constant": true,
      "inputs": [],
      "name": "name",
      "outputs": [
        {
          "name": "",
          "type": "string"
        }
      ],
      "payable": false,
      "stateMutability": "view",
      "type": "function"
    },
    {
      "constant": true,
      "inputs": [
        {
          "name": "",
          "type": "uint256"
        }
      ],
      "name": "candidates",
      "outputs": [
        {
          "name": "name",
          "type": "string"
        },
        {
          "name": "voteCount",
          "type": "uint256"
        }
      ],
      "payable": false,
      "stateMutability": "view",
      "type": "function"
    },
    {
      "constant": true,
      "inputs": [],
      "name": "owner",
      "outputs": [
        {
          "name": "",
          "type": "address"
        }
      ],
      "payable": false,
      "stateMutability": "view",
      "type": "function"
    },
    {
      "constant": true,
      "inputs": [
        {
          "name": "",
          "type": "address"
        }
      ],
      "name": "voters",
      "outputs": [
        {
          "name": "voted",
          "type": "bool"
        },
        {
          "name": "vote",
          "type": "uint256"
        },
        {
          "name": "weight",
          "type": "uint256"
        }
      ],
      "payable": false,
      "stateMutability": "view",
      "type": "function"
    },
    {
      "inputs": [
        {
          "name": "_name",
          "type": "string"
        },
        {
          "name": "candidate1",
          "type": "string"
        },
        {
          "name": "candidate2",
          "type": "string"
        }
      ],
      "payable": false,
      "stateMutability": "nonpayable",
      "type": "constructor"
    },
    {
      "anonymous": false,
      "inputs": [
        {
          "indexed": false,
          "name": "candidateName",
          "type": "string"
        },
        {
          "indexed": false,
          "name": "voteCount",
          "type": "uint256"
        }
      ],
      "name": "ElectionResult",
      "type": "event"
    },
    {
      "constant": false,
      "inputs": [
        {
          "name": "voter",
          "type": "address"
        }
      ],
      "name": "authorize",
      "outputs": [],
      "payable": false,
      "stateMutability": "nonpayable",
      "type": "function"
    },
    {
      "constant": false,
      "inputs": [
        {
          "name": "voteIndex",
          "type": "uint256"
        }
      ],
      "name": "vote",
      "outputs": [],
      "payable": false,
      "stateMutability": "nonpayable",
      "type": "function"
    },
    {
      "constant": false,
      "inputs": [],
      "name": "end",
      "outputs": [],
      "payable": false,
      "stateMutability": "nonpayable",
      "type": "function"
    }
  ],
  "bytecode": "0x60806040523480156200001157600080fd5b5060405162000e2738038062000e27833981018060405260608110156200003757600080fd5b8101908080516401000000008111156200005057600080fd5b828101905060208101848111156200006757600080fd5b81518560018202830111640100000000821117156200008557600080fd5b50509291906020018051640100000000811115620000a257600080fd5b82810190506020810184811115620000b957600080fd5b8151856001820283011164010000000082111715620000d757600080fd5b50509291906020018051640100000000811115620000f457600080fd5b828101905060208101848111156200010b57600080fd5b81518560018202830111640100000000821117156200012957600080fd5b5050929190505050336000806101000a81548173ffffffffffffffffffffffffffffffffffffffff021916908373ffffffffffffffffffffffffffffffffffffffff16021790555082600190805190602001906200018992919062000271565b50600360405180604001604052808481526020016000815250908060018154018082558091505090600182039060005260206000209060020201600090919290919091506000820151816000019080519060200190620001eb929190620002f8565b50602082015181600101555050506003604051806040016040528083815260200160008152509080600181540180825580915050906001820390600052602060002090600202016000909192909190915060008201518160000190805190602001906200025a929190620002f8565b5060208201518160010155505050505050620003a7565b828054600181600116156101000203166002900490600052602060002090601f016020900481019282601f10620002b457805160ff1916838001178555620002e5565b82800160010185558215620002e5579182015b82811115620002e4578251825591602001919060010190620002c7565b5b509050620002f491906200037f565b5090565b828054600181600116156101000203166002900490600052602060002090601f016020900481019282601f106200033b57805160ff19168380011785556200036c565b828001600101855582156200036c579182015b828111156200036b5782518255916020019190600101906200034e565b5b5090506200037b91906200037f565b5090565b620003a491905b80821115620003a057600081600090555060010162000386565b5090565b90565b610a7080620003b76000396000f3fe608060405234801561001057600080fd5b506004361061007d5760003560e01c80638da5cb5b1161005b5780638da5cb5b146101e1578063a3ec138d1461022b578063b6a5d7de14610295578063efbe1c1c146102d95761007d565b80630121b93f1461008257806306fdde03146100b05780633477ee2e14610133575b600080fd5b6100ae6004803603602081101561009857600080fd5b81019080803590602001909291905050506102e3565b005b6100b86104b9565b6040518080602001828103825283818151815260200191508051906020019080838360005b838110156100f85780820151818401526020810190506100dd565b50505050905090810190601f1680156101255780820380516001836020036101000a031916815260200191505b509250505060405180910390f35b61015f6004803603602081101561014957600080fd5b8101908080359060200190929190505050610557565b6040518080602001838152602001828103825284818151815260200191508051906020019080838360005b838110156101a557808201518184015260208101905061018a565b50505050905090810190601f1680156101d25780820380516001836020036101000a031916815260200191505b50935050505060405180910390f35b6101e9610620565b604051808273ffffffffffffffffffffffffffffffffffffffff1673ffffffffffffffffffffffffffffffffffffffff16815260200191505060405180910390f35b61026d6004803603602081101561024157600080fd5b81019080803573ffffffffffffffffffffffffffffffffffffffff169060200190929190505050610645565b6040518084151515158152602001838152602001828152602001935050505060405180910390f35b6102d7600480360360208110156102ab57600080fd5b81019080803573ffffffffffffffffffffffffffffffffffffffff16906020019092919050505061067c565b005b6102e161084c565b005b600260003373ffffffffffffffffffffffffffffffffffffffff1673ffffffffffffffffffffffffffffffffffffffff16815260200190815260200160002060000160009054906101000a900460ff16156103a6576040517f08c379a00000000000000000000000000000000000000000000000000000000081526004018080602001828103825260178152602001807f566f7465722068617320616c726561647920766f74656400000000000000000081525060200191505060405180910390fd5b80600260003373ffffffffffffffffffffffffffffffffffffffff1673ffffffffffffffffffffffffffffffffffffffff168152602001908152602001600020600101819055506001600260003373ffffffffffffffffffffffffffffffffffffffff1673ffffffffffffffffffffffffffffffffffffffff16815260200190815260200160002060000160006101000a81548160ff021916908315150217905550600260003373ffffffffffffffffffffffffffffffffffffffff1673ffffffffffffffffffffffffffffffffffffffff168152602001908152602001600020600201546003828154811061049857fe5b90600052602060002090600202016001016000828254019250508190555050565b60018054600181600116156101000203166002900480601f01602080910402602001604051908101604052809291908181526020018280546001816001161561010002031660029004801561054f5780601f106105245761010080835404028352916020019161054f565b820191906000526020600020905b81548152906001019060200180831161053257829003601f168201915b505050505081565b6003818154811061056457fe5b9060005260206000209060020201600091509050806000018054600181600116156101000203166002900480601f0160208091040260200160405190810160405280929190818152602001828054600181600116156101000203166002900480156106105780601f106105e557610100808354040283529160200191610610565b820191906000526020600020905b8154815290600101906020018083116105f357829003601f168201915b5050505050908060010154905082565b6000809054906101000a900473ffffffffffffffffffffffffffffffffffffffff1681565b60026020528060005260406000206000915090508060000160009054906101000a900460ff16908060010154908060020154905083565b6000809054906101000a900473ffffffffffffffffffffffffffffffffffffffff1673ffffffffffffffffffffffffffffffffffffffff163373ffffffffffffffffffffffffffffffffffffffff161461073e576040517f08c379a00000000000000000000000000000000000000000000000000000000081526004018080602001828103825260148152602001807f566f746572206e6f7420617574686f72697a656400000000000000000000000081525060200191505060405180910390fd5b600260008273ffffffffffffffffffffffffffffffffffffffff1673ffffffffffffffffffffffffffffffffffffffff16815260200190815260200160002060000160009054906101000a900460ff1615610801576040517f08c379a00000000000000000000000000000000000000000000000000000000081526004018080602001828103825260178152602001807f566f7465722068617320616c726561647920766f74656400000000000000000081525060200191505060405180910390fd5b6001600260008373ffffffffffffffffffffffffffffffffffffffff1673ffffffffffffffffffffffffffffffffffffffff1681526020019081526020016000206002018190555050565b6000809054906101000a900473ffffffffffffffffffffffffffffffffffffffff1673ffffffffffffffffffffffffffffffffffffffff163373ffffffffffffffffffffffffffffffffffffffff161461090e576040517f08c379a00000000000000000000000000000000000000000000000000000000081526004018080602001828103825260198152602001807f4f6e6c79206f776e65722063616e20656e6420766f74696e670000000000000081525060200191505060405180910390fd5b60008090505b600380549050811015610a2a577f156b5ffaa1a96772b4d324b6a0492ba5c51abe8a2818c38a0d409faddb63578c6003828154811061094f57fe5b90600052602060002090600202016000016003838154811061096d57fe5b9060005260206000209060020201600101546040518080602001838152602001828103825284818154600181600116156101000203166002900481526020019150805460018160011615610100020316600290048015610a0e5780601f106109e357610100808354040283529160200191610a0e565b820191906000526020600020905b8154815290600101906020018083116109f157829003601f168201915b5050935050505060405180910390a18080600101915050610914565b503373ffffffffffffffffffffffffffffffffffffffff16fffea165627a7a72305820b47035fe8a6a02ca6afb8e9c0f6652891b9ba2a506a78f00c5049b84611108f90029",
  "source": "pragma solidity ^0.5.8;\r\n\r\n/*\r\nElection contract that allows the owner to issue voting rights\r\nto anybody and also end the election and announce results\r\n*/\r\ncontract Election {\r\n    \r\n    struct Candidate {\r\n        string name;\r\n        uint voteCount;\r\n    }\r\n    \r\n    struct Voter {\r\n        bool voted;\r\n        uint vote;\r\n        uint weight;\r\n    }\r\n    \r\n    address public owner;\r\n    string public name;\r\n    mapping(address => Voter) public voters;\r\n    Candidate[] public candidates;\r\n    \r\n    event ElectionResult(string candidateName, uint voteCount);\r\n    \r\n    constructor(string memory _name, string memory candidate1, string memory candidate2) public {\r\n        owner = msg.sender;\r\n        \r\n        name = _name;\r\n        //initialize list of candidates to vote for\r\n        candidates.push(Candidate(candidate1, 0));\r\n        candidates.push(Candidate(candidate2, 0));\r\n    }\r\n    \r\n    function authorize(address voter) public {\r\n        //make sure only owner can authorize voting rights\r\n        require(msg.sender == owner, \"Voter not authorized\");\r\n        //make sure voter has not already voted\r\n        require(!voters[voter].voted, \"Voter has already voted\");\r\n\r\n        //assign voting rights\r\n        voters[voter].weight = 1;\r\n    }\r\n    \r\n    function vote(uint voteIndex) public {\r\n        //make sure voter has not already voted\r\n        require(!voters[msg.sender].voted, \"Voter has already voted\");\r\n        \r\n        //record vote\r\n        voters[msg.sender].vote = voteIndex;\r\n        voters[msg.sender].voted = true;\r\n        \r\n        //increase candidate vote count by voter weight\r\n        candidates[voteIndex].voteCount += voters[msg.sender].weight;\r\n    }\r\n    \r\n    function end() public {\r\n        //make sure only owner can end voting\r\n        require(msg.sender == owner, \"Only owner can end voting\");\r\n        \r\n        //announce each candidates results\r\n        for(uint i = 0; i < candidates.length; i++){\r\n            emit ElectionResult(candidates[i].name, candidates[i].voteCount);\r\n        }\r\n        \r\n        //destroy the contract\r\n        selfdestruct(msg.sender);\r\n    }\r\n}",
  "sourcePath": "Z:/BLOCKGEEKS/ETHEREUM/ELECTION/contracts/Election.sol",
  "compiler": {
    "name": "solc",
    "version": "0.5.8+commit.23d335f2.Emscripten.clang"
  },
  "schemaVersion": "3.0.10",
  "updatedAt": "2019-06-03T07:46:04.839Z",
  "devdoc": {
    "methods": {}
  },
  "userdoc": {
    "methods": {}
  }
}