{
  "contractName": "Wrestling",
  "abi": [
    {
      "constant": true,
      "inputs": [],
      "name": "theWinner",
      "outputs": [
        {
          "name": "",
          "type": "address"
        }
      ],
      "payable": false,
      "stateMutability": "view",
      "type": "function"
    },
    {
      "constant": true,
      "inputs": [],
      "name": "wrestler2",
      "outputs": [
        {
          "name": "",
          "type": "address"
        }
      ],
      "payable": false,
      "stateMutability": "view",
      "type": "function"
    },
    {
      "constant": true,
      "inputs": [],
      "name": "wrestler1Played",
      "outputs": [
        {
          "name": "",
          "type": "bool"
        }
      ],
      "payable": false,
      "stateMutability": "view",
      "type": "function"
    },
    {
      "constant": true,
      "inputs": [],
      "name": "wrestler1",
      "outputs": [
        {
          "name": "",
          "type": "address"
        }
      ],
      "payable": false,
      "stateMutability": "view",
      "type": "function"
    },
    {
      "constant": true,
      "inputs": [],
      "name": "gameFinished",
      "outputs": [
        {
          "name": "",
          "type": "bool"
        }
      ],
      "payable": false,
      "stateMutability": "view",
      "type": "function"
    },
    {
      "constant": true,
      "inputs": [],
      "name": "wrestler2Played",
      "outputs": [
        {
          "name": "",
          "type": "bool"
        }
      ],
      "payable": false,
      "stateMutability": "view",
      "type": "function"
    },
    {
      "inputs": [],
      "payable": false,
      "stateMutability": "nonpayable",
      "type": "constructor"
    },
    {
      "anonymous": false,
      "inputs": [
        {
          "indexed": false,
          "name": "wrestler1",
          "type": "address"
        },
        {
          "indexed": false,
          "name": "wrestler2",
          "type": "address"
        }
      ],
      "name": "WrestlingStartsEvent",
      "type": "event"
    },
    {
      "anonymous": false,
      "inputs": [
        {
          "indexed": false,
          "name": "wrestler1Deposit",
          "type": "uint256"
        },
        {
          "indexed": false,
          "name": "wrestler2Deposit",
          "type": "uint256"
        }
      ],
      "name": "EndOfRoundEvent",
      "type": "event"
    },
    {
      "anonymous": false,
      "inputs": [
        {
          "indexed": false,
          "name": "winner",
          "type": "address"
        },
        {
          "indexed": false,
          "name": "gains",
          "type": "uint256"
        }
      ],
      "name": "EndOfWrestlingEvent",
      "type": "event"
    },
    {
      "constant": false,
      "inputs": [],
      "name": "registerAsAnOpponent",
      "outputs": [],
      "payable": false,
      "stateMutability": "nonpayable",
      "type": "function"
    },
    {
      "constant": false,
      "inputs": [],
      "name": "wrestle",
      "outputs": [],
      "payable": true,
      "stateMutability": "payable",
      "type": "function"
    },
    {
      "constant": false,
      "inputs": [],
      "name": "withdraw",
      "outputs": [],
      "payable": false,
      "stateMutability": "nonpayable",
      "type": "function"
    }
  ],
  "bytecode": "0x608060405234801561001057600080fd5b50336000806101000a81548173ffffffffffffffffffffffffffffffffffffffff021916908373ffffffffffffffffffffffffffffffffffffffff160217905550610947806100606000396000f3fe6080604052600436106100865760003560e01c80639ede3858116100595780639ede38581461015a578063a8b42f1f14610189578063e2f0a978146101a0578063f0f32497146101f7578063f973728e1461022657610086565b806303cc55971461008b5780633ccfd60b146100955780639d24e482146100ac5780639e07f92a14610103575b600080fd5b610093610255565b005b3480156100a157600080fd5b506100aa6104b8565b005b3480156100b857600080fd5b506100c1610583565b604051808273ffffffffffffffffffffffffffffffffffffffff1673ffffffffffffffffffffffffffffffffffffffff16815260200191505060405180910390f35b34801561010f57600080fd5b506101186105a9565b604051808273ffffffffffffffffffffffffffffffffffffffff1673ffffffffffffffffffffffffffffffffffffffff16815260200191505060405180910390f35b34801561016657600080fd5b5061016f6105cf565b604051808215151515815260200191505060405180910390f35b34801561019557600080fd5b5061019e6105e2565b005b3480156101ac57600080fd5b506101b561075a565b604051808273ffffffffffffffffffffffffffffffffffffffff1673ffffffffffffffffffffffffffffffffffffffff16815260200191505060405180910390f35b34801561020357600080fd5b5061020c61077f565b604051808215151515815260200191505060405180910390f35b34801561023257600080fd5b5061023b610792565b604051808215151515815260200191505060405180910390f35b600460009054906101000a900460ff1615801561031657506000809054906101000a900473ffffffffffffffffffffffffffffffffffffffff1673ffffffffffffffffffffffffffffffffffffffff163373ffffffffffffffffffffffffffffffffffffffff1614806103155750600160009054906101000a900473ffffffffffffffffffffffffffffffffffffffff1673ffffffffffffffffffffffffffffffffffffffff163373ffffffffffffffffffffffffffffffffffffffff16145b5b61031f57600080fd5b6000809054906101000a900473ffffffffffffffffffffffffffffffffffffffff1673ffffffffffffffffffffffffffffffffffffffff163373ffffffffffffffffffffffffffffffffffffffff1614156103be5760001515600160149054906101000a900460ff1615151461039457600080fd5b60018060146101000a81548160ff0219169083151502179055503460025401600281905550610404565b60001515600160159054906101000a900460ff161515146103de57600080fd5b60018060156101000a81548160ff02191690831515021790555034600354016003819055505b600160149054906101000a900460ff16801561042c5750600160159054906101000a900460ff165b156104b6576002600354026002541061046e576104696000809054906101000a900473ffffffffffffffffffffffffffffffffffffffff166107a5565b6104b5565b6002805402600354106104ab576104a6600160009054906101000a900473ffffffffffffffffffffffffffffffffffffffff166107a5565b6104b4565b6104b36108a0565b5b5b5b565b600460009054906101000a900460ff16801561052157503373ffffffffffffffffffffffffffffffffffffffff16600460019054906101000a900473ffffffffffffffffffffffffffffffffffffffff1673ffffffffffffffffffffffffffffffffffffffff16145b61052a57600080fd5b6000600554905060006005819055503373ffffffffffffffffffffffffffffffffffffffff166108fc829081150290604051600060405180830381858888f1935050505015801561057f573d6000803e3d6000fd5b5050565b600460019054906101000a900473ffffffffffffffffffffffffffffffffffffffff1681565b600160009054906101000a900473ffffffffffffffffffffffffffffffffffffffff1681565b600160149054906101000a900460ff1681565b600073ffffffffffffffffffffffffffffffffffffffff16600160009054906101000a900473ffffffffffffffffffffffffffffffffffffffff1673ffffffffffffffffffffffffffffffffffffffff161461063d57600080fd5b33600160006101000a81548173ffffffffffffffffffffffffffffffffffffffff021916908373ffffffffffffffffffffffffffffffffffffffff1602179055507fd4443f0433b17d5fcbda14745060c62f4fd645677efd560e394d49cc6b73b9e56000809054906101000a900473ffffffffffffffffffffffffffffffffffffffff16600160009054906101000a900473ffffffffffffffffffffffffffffffffffffffff16604051808373ffffffffffffffffffffffffffffffffffffffff1673ffffffffffffffffffffffffffffffffffffffff1681526020018273ffffffffffffffffffffffffffffffffffffffff1673ffffffffffffffffffffffffffffffffffffffff1681526020019250505060405180910390a1565b6000809054906101000a900473ffffffffffffffffffffffffffffffffffffffff1681565b600460009054906101000a900460ff1681565b600160159054906101000a900460ff1681565b6001600460006101000a81548160ff02191690831515021790555080600460016101000a81548173ffffffffffffffffffffffffffffffffffffffff021916908373ffffffffffffffffffffffffffffffffffffffff160217905550600354600254016005819055507f132c17ee6430a7c27424b2711c0e3f020ae13d9d62cfb347ae343c2180654bcb600460019054906101000a900473ffffffffffffffffffffffffffffffffffffffff16600554604051808373ffffffffffffffffffffffffffffffffffffffff1673ffffffffffffffffffffffffffffffffffffffff1681526020018281526020019250505060405180910390a150565b6000600160146101000a81548160ff0219169083151502179055506000600160156101000a81548160ff0219169083151502179055507f4a06b026e39d5ecf4150ef1983227e240bcd23677c8d89479f9521c4e7bed63e600254600354604051808381526020018281526020019250505060405180910390a156fea165627a7a7230582005ec47aabc8fe760db7479ca7276897a65d17785c2402f6b135e1f229a6d9eb00029",
  "source": "pragma solidity ^0.5.8;\r\n\r\ncontract Wrestling {\r\n    address public wrestler1;\r\n    address public wrestler2;\r\n    \r\n    bool public wrestler1Played;\r\n    bool public wrestler2Played;\r\n    \r\n    uint private wrestler1Deposit;\r\n    uint private wrestler2Deposit;\r\n    \r\n    bool public gameFinished;\r\n    address public theWinner;\r\n    uint gains;\r\n    \r\n    event WrestlingStartsEvent(address wrestler1, address wrestler2);\r\n    event EndOfRoundEvent(uint wrestler1Deposit, uint wrestler2Deposit);\r\n    event EndOfWrestlingEvent(address winner, uint gains);\r\n    \r\n    constructor() public {\r\n        wrestler1 = msg.sender;\r\n    }\r\n    \r\n    function registerAsAnOpponent() public {\r\n        require(wrestler2 == address(0));\r\n        \r\n        wrestler2 = msg.sender;\r\n        \r\n        emit WrestlingStartsEvent(wrestler1, wrestler2);\r\n    }\r\n    \r\n    function wrestle() public payable{\r\n        require(!gameFinished && (msg.sender == wrestler1 || msg.sender == wrestler2) );\r\n        \r\n        if(msg.sender == wrestler1) {\r\n            require(wrestler1Played == false);\r\n            wrestler1Played = true;\r\n            wrestler1Deposit = wrestler1Deposit + msg.value;\r\n        } else {\r\n            require(wrestler2Played == false);\r\n            wrestler2Played = true;\r\n            wrestler2Deposit = wrestler2Deposit + msg.value;\r\n        }\r\n        \r\n        if(wrestler1Played && wrestler2Played) {\r\n            if(wrestler1Deposit >= wrestler2Deposit * 2) {\r\n                endOfGame(wrestler1);\r\n            } else if(wrestler2Deposit >= wrestler1Deposit * 2) {\r\n                endOfGame(wrestler2);\r\n            } else {\r\n                endOfRound();\r\n            }\r\n        }\r\n    }\r\n    \r\n    function endOfRound() internal {\r\n        wrestler1Played = false;\r\n        wrestler2Played = false;\r\n        \r\n        emit EndOfRoundEvent(wrestler1Deposit, wrestler2Deposit);\r\n    }\r\n    \r\n    function endOfGame(address winner) internal {\r\n        gameFinished = true;\r\n        theWinner = winner;\r\n        \r\n        gains = wrestler1Deposit + wrestler2Deposit;\r\n        emit EndOfWrestlingEvent(theWinner, gains);\r\n    }\r\n    \r\n    function withdraw() public{\r\n        require(gameFinished && theWinner == msg.sender);\r\n        \r\n        uint amount = gains;\r\n        \r\n        gains = 0;\r\n        msg.sender.transfer(amount);\r\n    }\r\n}",
  "sourcePath": "Z:/BLOCKGEEKS/ETHEREUM/TRUFFLE/wrestling/contracts/Wrestling.sol",
  "compiler": {
    "name": "solc",
    "version": "0.5.8+commit.23d335f2.Emscripten.clang"
  },
  "schemaVersion": "3.0.15",
  "updatedAt": "2019-09-12T05:23:43.791Z",
  "devdoc": {
    "methods": {}
  },
  "userdoc": {
    "methods": {}
  }
}